{
  "_format": "hh-sol-artifact-1",
  "contractName": "ENSC_ENERGY",
  "sourceName": "contracts/ENSC_ENERGY.sol",
  "abi": [
    {
      "inputs": [],
      "stateMutability": "nonpayable",
      "type": "constructor"
    },
    {
      "anonymous": false,
      "inputs": [
        {
          "indexed": true,
          "internalType": "address",
          "name": "owner",
          "type": "address"
        },
        {
          "indexed": true,
          "internalType": "address",
          "name": "spender",
          "type": "address"
        },
        {
          "indexed": false,
          "internalType": "uint256",
          "name": "value",
          "type": "uint256"
        }
      ],
      "name": "Approval",
      "type": "event"
    },
    {
      "anonymous": false,
      "inputs": [
        {
          "indexed": true,
          "internalType": "address",
          "name": "from",
          "type": "address"
        },
        {
          "indexed": true,
          "internalType": "address",
          "name": "to",
          "type": "address"
        },
        {
          "indexed": false,
          "internalType": "uint256",
          "name": "value",
          "type": "uint256"
        }
      ],
      "name": "Transfer",
      "type": "event"
    },
    {
      "inputs": [
        {
          "internalType": "address",
          "name": "owner",
          "type": "address"
        },
        {
          "internalType": "address",
          "name": "spender",
          "type": "address"
        }
      ],
      "name": "allowance",
      "outputs": [
        {
          "internalType": "uint256",
          "name": "",
          "type": "uint256"
        }
      ],
      "stateMutability": "view",
      "type": "function"
    },
    {
      "inputs": [
        {
          "internalType": "address",
          "name": "spender",
          "type": "address"
        },
        {
          "internalType": "uint256",
          "name": "amount",
          "type": "uint256"
        }
      ],
      "name": "approve",
      "outputs": [
        {
          "internalType": "bool",
          "name": "",
          "type": "bool"
        }
      ],
      "stateMutability": "nonpayable",
      "type": "function"
    },
    {
      "inputs": [
        {
          "internalType": "address",
          "name": "account",
          "type": "address"
        }
      ],
      "name": "balanceOf",
      "outputs": [
        {
          "internalType": "uint256",
          "name": "",
          "type": "uint256"
        }
      ],
      "stateMutability": "view",
      "type": "function"
    },
    {
      "inputs": [
        {
          "internalType": "uint256",
          "name": "amount",
          "type": "uint256"
        }
      ],
      "name": "burn",
      "outputs": [],
      "stateMutability": "nonpayable",
      "type": "function"
    },
    {
      "inputs": [],
      "name": "cap",
      "outputs": [
        {
          "internalType": "uint256",
          "name": "",
          "type": "uint256"
        }
      ],
      "stateMutability": "view",
      "type": "function"
    },
    {
      "inputs": [],
      "name": "decimals",
      "outputs": [
        {
          "internalType": "uint8",
          "name": "",
          "type": "uint8"
        }
      ],
      "stateMutability": "view",
      "type": "function"
    },
    {
      "inputs": [
        {
          "internalType": "address",
          "name": "spender",
          "type": "address"
        },
        {
          "internalType": "uint256",
          "name": "subtractedValue",
          "type": "uint256"
        }
      ],
      "name": "decreaseAllowance",
      "outputs": [
        {
          "internalType": "bool",
          "name": "",
          "type": "bool"
        }
      ],
      "stateMutability": "nonpayable",
      "type": "function"
    },
    {
      "inputs": [
        {
          "internalType": "address",
          "name": "spender",
          "type": "address"
        },
        {
          "internalType": "uint256",
          "name": "addedValue",
          "type": "uint256"
        }
      ],
      "name": "increaseAllowance",
      "outputs": [
        {
          "internalType": "bool",
          "name": "",
          "type": "bool"
        }
      ],
      "stateMutability": "nonpayable",
      "type": "function"
    },
    {
      "inputs": [
        {
          "internalType": "uint256",
          "name": "amount",
          "type": "uint256"
        }
      ],
      "name": "mint",
      "outputs": [],
      "stateMutability": "nonpayable",
      "type": "function"
    },
    {
      "inputs": [],
      "name": "name",
      "outputs": [
        {
          "internalType": "string",
          "name": "",
          "type": "string"
        }
      ],
      "stateMutability": "view",
      "type": "function"
    },
    {
      "inputs": [],
      "name": "owner",
      "outputs": [
        {
          "internalType": "address payable",
          "name": "",
          "type": "address"
        }
      ],
      "stateMutability": "view",
      "type": "function"
    },
    {
      "inputs": [],
      "name": "symbol",
      "outputs": [
        {
          "internalType": "string",
          "name": "",
          "type": "string"
        }
      ],
      "stateMutability": "view",
      "type": "function"
    },
    {
      "inputs": [],
      "name": "totalSupply",
      "outputs": [
        {
          "internalType": "uint256",
          "name": "",
          "type": "uint256"
        }
      ],
      "stateMutability": "view",
      "type": "function"
    },
    {
      "inputs": [
        {
          "internalType": "address",
          "name": "to",
          "type": "address"
        },
        {
          "internalType": "uint256",
          "name": "amount",
          "type": "uint256"
        }
      ],
      "name": "transfer",
      "outputs": [
        {
          "internalType": "bool",
          "name": "",
          "type": "bool"
        }
      ],
      "stateMutability": "nonpayable",
      "type": "function"
    },
    {
      "inputs": [
        {
          "internalType": "address",
          "name": "from",
          "type": "address"
        },
        {
          "internalType": "address",
          "name": "to",
          "type": "address"
        },
        {
          "internalType": "uint256",
          "name": "amount",
          "type": "uint256"
        }
      ],
      "name": "transferFrom",
      "outputs": [
        {
          "internalType": "bool",
          "name": "",
          "type": "bool"
        }
      ],
      "stateMutability": "nonpayable",
      "type": "function"
    },
    {
      "stateMutability": "payable",
      "type": "receive"
    }
  ],
  "bytecode": "0x60a06040523480156200001157600080fd5b50620000206012600a62000477565b62000031906404a817c8006200048f565b604080518082018252600b81526a454e534320454e4552475960a81b602080830191825283518085019094526004845263454e534360e01b9084015281519192916200008091600391620002bc565b50805162000096906004906020840190620002bc565b50505060008111620000ef5760405162461bcd60e51b815260206004820152601560248201527f45524332304361707065643a206361702069732030000000000000000000000060448201526064015b60405180910390fd5b608052600580546001600160a01b03191633908117909155620001399062000115601290565b6200012290600a62000477565b62000133906404a817c8006200048f565b6200013f565b62000509565b6080518162000158620001cf60201b620003d21760201c565b620001649190620004b1565b1115620001b45760405162461bcd60e51b815260206004820152601960248201527f45524332304361707065643a20636170206578636565646564000000000000006044820152606401620000e6565b620001cb8282620001d560201b620005b31760201c565b5050565b60025490565b6001600160a01b0382166200022d5760405162461bcd60e51b815260206004820152601f60248201527f45524332303a206d696e7420746f20746865207a65726f2061646472657373006044820152606401620000e6565b8060026000828254620002419190620004b1565b90915550506001600160a01b0382166000908152602081905260408120805483929062000270908490620004b1565b90915550506040518181526001600160a01b038316906000907fddf252ad1be2c89b69c2b068fc378daa952ba7f163c4a11628f55a4df523b3ef9060200160405180910390a3620001cb565b828054620002ca90620004cc565b90600052602060002090601f016020900481019282620002ee576000855562000339565b82601f106200030957805160ff191683800117855562000339565b8280016001018555821562000339579182015b82811115620003395782518255916020019190600101906200031c565b50620003479291506200034b565b5090565b5b808211156200034757600081556001016200034c565b634e487b7160e01b600052601160045260246000fd5b600181815b80851115620003b95781600019048211156200039d576200039d62000362565b80851615620003ab57918102915b93841c93908002906200037d565b509250929050565b600082620003d25750600162000471565b81620003e15750600062000471565b8160018114620003fa5760028114620004055762000425565b600191505062000471565b60ff84111562000419576200041962000362565b50506001821b62000471565b5060208310610133831016604e8410600b84101617156200044a575081810a62000471565b62000456838362000378565b80600019048211156200046d576200046d62000362565b0290505b92915050565b60006200048860ff841683620003c1565b9392505050565b6000816000190483118215151615620004ac57620004ac62000362565b500290565b60008219821115620004c757620004c762000362565b500190565b600181811c90821680620004e157607f821691505b602082108114156200050357634e487b7160e01b600052602260045260246000fd5b50919050565b608051610ee06200052c600039600081816101bd0152610b480152610ee06000f3fe6080604052600436106100ec5760003560e01c806342966c681161008a578063a0712d6811610059578063a0712d68146102a6578063a457c2d7146102c6578063a9059cbb146102e6578063dd62ed3e1461030657600080fd5b806342966c681461020157806370a08231146102235780638da5cb5b1461025957806395d89b411461029157600080fd5b806323b872dd116100c657806323b872dd14610172578063313ce56714610192578063355274ea146101ae57806339509351146101e157600080fd5b806306fdde03146100f8578063095ea7b31461012357806318160ddd1461015357600080fd5b366100f357005b600080fd5b34801561010457600080fd5b5061010d610326565b60405161011a9190610bd3565b60405180910390f35b34801561012f57600080fd5b5061014361013e366004610c44565b6103b8565b604051901515815260200161011a565b34801561015f57600080fd5b506002545b60405190815260200161011a565b34801561017e57600080fd5b5061014361018d366004610c6e565b6103d8565b34801561019e57600080fd5b506040516012815260200161011a565b3480156101ba57600080fd5b507f0000000000000000000000000000000000000000000000000000000000000000610164565b3480156101ed57600080fd5b506101436101fc366004610c44565b6103fc565b34801561020d57600080fd5b5061022161021c366004610caa565b61041e565b005b34801561022f57600080fd5b5061016461023e366004610cc3565b6001600160a01b031660009081526020819052604090205490565b34801561026557600080fd5b50600554610279906001600160a01b031681565b6040516001600160a01b03909116815260200161011a565b34801561029d57600080fd5b5061010d610440565b3480156102b257600080fd5b506102216102c1366004610caa565b61044f565b3480156102d257600080fd5b506101436102e1366004610c44565b6104ff565b3480156102f257600080fd5b50610143610301366004610c44565b61057a565b34801561031257600080fd5b50610164610321366004610ce5565b610588565b60606003805461033590610d18565b80601f016020809104026020016040519081016040528092919081815260200182805461036190610d18565b80156103ae5780601f10610383576101008083540402835291602001916103ae565b820191906000526020600020905b81548152906001019060200180831161039157829003601f168201915b5050505050905090565b6000336103c6818585610693565b60019150505b92915050565b60025490565b6000336103e68582856107b8565b6103f1858585610832565b506001949350505050565b6000336103c681858561040f8383610588565b6104199190610d69565b610693565b61043d3361042e6012600a610e65565b6104389084610e74565b610a00565b50565b60606004805461033590610d18565b6005546001600160a01b031633146104d45760405162461bcd60e51b815260206004820152603e60248201527f4f6e6c79207468697320736d61727420636f6e7472616374206465706c6f796560448201527f72206f6e6c792063616e2063616c6c20746869732066756e6374696f6e21000060648201526084015b60405180910390fd5b60055461043d906001600160a01b03166104f06012600a610e65565b6104fa9084610e74565b610b46565b6000338161050d8286610588565b90508381101561056d5760405162461bcd60e51b815260206004820152602560248201527f45524332303a2064656372656173656420616c6c6f77616e63652062656c6f77604482015264207a65726f60d81b60648201526084016104cb565b6103f18286868403610693565b6000336103c6818585610832565b6001600160a01b03918216600090815260016020908152604080832093909416825291909152205490565b6001600160a01b0382166106095760405162461bcd60e51b815260206004820152601f60248201527f45524332303a206d696e7420746f20746865207a65726f20616464726573730060448201526064016104cb565b806002600082825461061b9190610d69565b90915550506001600160a01b03821660009081526020819052604081208054839290610648908490610d69565b90915550506040518181526001600160a01b038316906000907fddf252ad1be2c89b69c2b068fc378daa952ba7f163c4a11628f55a4df523b3ef9060200160405180910390a35b5050565b6001600160a01b0383166106f55760405162461bcd60e51b8152602060048201526024808201527f45524332303a20617070726f76652066726f6d20746865207a65726f206164646044820152637265737360e01b60648201526084016104cb565b6001600160a01b0382166107565760405162461bcd60e51b815260206004820152602260248201527f45524332303a20617070726f766520746f20746865207a65726f206164647265604482015261737360f01b60648201526084016104cb565b6001600160a01b0383811660008181526001602090815260408083209487168084529482529182902085905590518481527f8c5be1e5ebec7d5bd14f71427d1e84f3dd0314c0f7b2291e5b200ac8c7c3b92591015b60405180910390a3505050565b60006107c48484610588565b9050600019811461082c578181101561081f5760405162461bcd60e51b815260206004820152601d60248201527f45524332303a20696e73756666696369656e7420616c6c6f77616e636500000060448201526064016104cb565b61082c8484848403610693565b50505050565b6001600160a01b0383166108965760405162461bcd60e51b815260206004820152602560248201527f45524332303a207472616e736665722066726f6d20746865207a65726f206164604482015264647265737360d81b60648201526084016104cb565b6001600160a01b0382166108f85760405162461bcd60e51b815260206004820152602360248201527f45524332303a207472616e7366657220746f20746865207a65726f206164647260448201526265737360e81b60648201526084016104cb565b6001600160a01b038316600090815260208190526040902054818110156109705760405162461bcd60e51b815260206004820152602660248201527f45524332303a207472616e7366657220616d6f756e7420657863656564732062604482015265616c616e636560d01b60648201526084016104cb565b6001600160a01b038085166000908152602081905260408082208585039055918516815290812080548492906109a7908490610d69565b92505081905550826001600160a01b0316846001600160a01b03167fddf252ad1be2c89b69c2b068fc378daa952ba7f163c4a11628f55a4df523b3ef846040516109f391815260200190565b60405180910390a361082c565b6001600160a01b038216610a605760405162461bcd60e51b815260206004820152602160248201527f45524332303a206275726e2066726f6d20746865207a65726f206164647265736044820152607360f81b60648201526084016104cb565b6001600160a01b03821660009081526020819052604090205481811015610ad45760405162461bcd60e51b815260206004820152602260248201527f45524332303a206275726e20616d6f756e7420657863656564732062616c616e604482015261636560f01b60648201526084016104cb565b6001600160a01b0383166000908152602081905260408120838303905560028054849290610b03908490610e93565b90915550506040518281526000906001600160a01b038516907fddf252ad1be2c89b69c2b068fc378daa952ba7f163c4a11628f55a4df523b3ef906020016107ab565b7f000000000000000000000000000000000000000000000000000000000000000081610b7160025490565b610b7b9190610d69565b1115610bc95760405162461bcd60e51b815260206004820152601960248201527f45524332304361707065643a206361702065786365656465640000000000000060448201526064016104cb565b61068f82826105b3565b600060208083528351808285015260005b81811015610c0057858101830151858201604001528201610be4565b81811115610c12576000604083870101525b50601f01601f1916929092016040019392505050565b80356001600160a01b0381168114610c3f57600080fd5b919050565b60008060408385031215610c5757600080fd5b610c6083610c28565b946020939093013593505050565b600080600060608486031215610c8357600080fd5b610c8c84610c28565b9250610c9a60208501610c28565b9150604084013590509250925092565b600060208284031215610cbc57600080fd5b5035919050565b600060208284031215610cd557600080fd5b610cde82610c28565b9392505050565b60008060408385031215610cf857600080fd5b610d0183610c28565b9150610d0f60208401610c28565b90509250929050565b600181811c90821680610d2c57607f821691505b60208210811415610d4d57634e487b7160e01b600052602260045260246000fd5b50919050565b634e487b7160e01b600052601160045260246000fd5b60008219821115610d7c57610d7c610d53565b500190565b600181815b80851115610dbc578160001904821115610da257610da2610d53565b80851615610daf57918102915b93841c9390800290610d86565b509250929050565b600082610dd3575060016103cc565b81610de0575060006103cc565b8160018114610df65760028114610e0057610e1c565b60019150506103cc565b60ff841115610e1157610e11610d53565b50506001821b6103cc565b5060208310610133831016604e8410600b8410161715610e3f575081810a6103cc565b610e498383610d81565b8060001904821115610e5d57610e5d610d53565b029392505050565b6000610cde60ff841683610dc4565b6000816000190483118215151615610e8e57610e8e610d53565b500290565b600082821015610ea557610ea5610d53565b50039056fea26469706673582212209a045baeb3ad19fe3d5f3ed73345df7082eaf7356ba195d61f2b90f0ba7bb2b564736f6c63430008090033",
  "linkReferences": {},
  "deployedLinkReferences": {}
}