{
  "_format": "hh-sol-artifact-1",
  "contractName": "CrowdFunding",
  "sourceName": "contracts/CrowdFunding.sol",
  "abi": [
    {
      "inputs": [
        {
          "internalType": "address payable",
          "name": "_tokenContractAddress",
          "type": "address"
        }
      ],
      "stateMutability": "nonpayable",
      "type": "constructor"
    },
    {
      "inputs": [
        {
          "internalType": "uint256",
          "name": "",
          "type": "uint256"
        }
      ],
      "name": "campaigns",
      "outputs": [
        {
          "internalType": "address",
          "name": "owner",
          "type": "address"
        },
        {
          "internalType": "string",
          "name": "title",
          "type": "string"
        },
        {
          "internalType": "string",
          "name": "description",
          "type": "string"
        },
        {
          "internalType": "uint256",
          "name": "target",
          "type": "uint256"
        },
        {
          "internalType": "uint256",
          "name": "deadline",
          "type": "uint256"
        },
        {
          "internalType": "uint256",
          "name": "amountCollected",
          "type": "uint256"
        },
        {
          "internalType": "string",
          "name": "image",
          "type": "string"
        }
      ],
      "stateMutability": "view",
      "type": "function"
    },
    {
      "inputs": [
        {
          "internalType": "address",
          "name": "_owner",
          "type": "address"
        },
        {
          "internalType": "string",
          "name": "_title",
          "type": "string"
        },
        {
          "internalType": "string",
          "name": "_description",
          "type": "string"
        },
        {
          "internalType": "uint256",
          "name": "_target",
          "type": "uint256"
        },
        {
          "internalType": "uint256",
          "name": "_deadline",
          "type": "uint256"
        },
        {
          "internalType": "string",
          "name": "_image",
          "type": "string"
        },
        {
          "internalType": "uint256",
          "name": "_enscAmount",
          "type": "uint256"
        }
      ],
      "name": "createCampaign",
      "outputs": [
        {
          "internalType": "uint256",
          "name": "",
          "type": "uint256"
        }
      ],
      "stateMutability": "nonpayable",
      "type": "function"
    },
    {
      "inputs": [
        {
          "internalType": "uint256",
          "name": "_id",
          "type": "uint256"
        },
        {
          "internalType": "uint256",
          "name": "_enscAmount",
          "type": "uint256"
        }
      ],
      "name": "donateToCampaign",
      "outputs": [],
      "stateMutability": "nonpayable",
      "type": "function"
    },
    {
      "inputs": [],
      "name": "getCampaigns",
      "outputs": [
        {
          "components": [
            {
              "internalType": "address",
              "name": "owner",
              "type": "address"
            },
            {
              "internalType": "string",
              "name": "title",
              "type": "string"
            },
            {
              "internalType": "string",
              "name": "description",
              "type": "string"
            },
            {
              "internalType": "uint256",
              "name": "target",
              "type": "uint256"
            },
            {
              "internalType": "uint256",
              "name": "deadline",
              "type": "uint256"
            },
            {
              "internalType": "uint256",
              "name": "amountCollected",
              "type": "uint256"
            },
            {
              "internalType": "string",
              "name": "image",
              "type": "string"
            },
            {
              "internalType": "address[]",
              "name": "donators",
              "type": "address[]"
            },
            {
              "internalType": "uint256[]",
              "name": "donations",
              "type": "uint256[]"
            }
          ],
          "internalType": "struct CrowdFunding.Campaign[]",
          "name": "",
          "type": "tuple[]"
        }
      ],
      "stateMutability": "view",
      "type": "function"
    },
    {
      "inputs": [
        {
          "internalType": "uint256",
          "name": "_id",
          "type": "uint256"
        }
      ],
      "name": "getDonators",
      "outputs": [
        {
          "internalType": "address[]",
          "name": "",
          "type": "address[]"
        },
        {
          "internalType": "uint256[]",
          "name": "",
          "type": "uint256[]"
        }
      ],
      "stateMutability": "view",
      "type": "function"
    },
    {
      "inputs": [],
      "name": "numberOfCampaigns",
      "outputs": [
        {
          "internalType": "uint256",
          "name": "",
          "type": "uint256"
        }
      ],
      "stateMutability": "view",
      "type": "function"
    },
    {
      "inputs": [],
      "name": "tokenContract",
      "outputs": [
        {
          "internalType": "contract ENSC_ENERGY",
          "name": "",
          "type": "address"
        }
      ],
      "stateMutability": "view",
      "type": "function"
    }
  ],
  "bytecode": "0x6080604052600060025534801561001557600080fd5b5060405161116038038061116083398101604081905261003491610059565b600080546001600160a01b0319166001600160a01b0392909216919091179055610089565b60006020828403121561006b57600080fd5b81516001600160a01b038116811461008257600080fd5b9392505050565b6110c8806100986000396000f3fe608060405234801561001057600080fd5b506004361061007d5760003560e01c80632b7216e51161005b5780632b7216e5146100e557806355a373d6146100fa578063a6b0363314610125578063fe91349d1461013a57600080fd5b806307ca140d146100825780630fa91fa91461009e578063141961bc146100bf575b600080fd5b61008b60025481565b6040519081526020015b60405180910390f35b6100b16100ac366004610b60565b61014d565b604051610095929190610b79565b6100d26100cd366004610b60565b61021e565b6040516100959796959493929190610c4a565b6100f86100f3366004610cb4565b6103fc565b005b60005461010d906001600160a01b031681565b6040516001600160a01b039091168152602001610095565b61012d610535565b6040516100959190610d4a565b61008b610148366004610efa565b6108df565b6000818152600160209081526040918290206007810180548451818502810185019095528085526060948594929360080192909184918301828280156101bc57602002820191906000526020600020905b81546001600160a01b0316815260019091019060200180831161019e575b505050505091508080548060200260200160405190810160405280929190818152602001828054801561020e57602002820191906000526020600020905b8154815260200190600101908083116101fa575b5050505050905091509150915091565b6001602081905260009182526040909120805491810180546001600160a01b039093169261024b90610fbe565b80601f016020809104026020016040519081016040528092919081815260200182805461027790610fbe565b80156102c45780601f10610299576101008083540402835291602001916102c4565b820191906000526020600020905b8154815290600101906020018083116102a757829003601f168201915b5050505050908060020180546102d990610fbe565b80601f016020809104026020016040519081016040528092919081815260200182805461030590610fbe565b80156103525780601f1061032757610100808354040283529160200191610352565b820191906000526020600020905b81548152906001019060200180831161033557829003601f168201915b50505050509080600301549080600401549080600501549080600601805461037990610fbe565b80601f01602080910402602001604051908101604052809291908181526020018280546103a590610fbe565b80156103f25780601f106103c7576101008083540402835291602001916103f2565b820191906000526020600020905b8154815290600101906020018083116103d557829003601f168201915b5050505050905087565b600082815260016020818152604080842060078101805480860182559086528386200180546001600160a01b0319163390811790915560088201805495860181558652928520909301859055925492516323b872dd60e01b815260048101919091523060248201526044810184905290916001600160a01b0316906323b872dd90606401602060405180830381600087803b15801561049a57600080fd5b505af11580156104ae573d6000803e3d6000fd5b505050506040513d601f19601f820116820180604052508101906104d29190610ff3565b61051b5760405162461bcd60e51b8152602060048201526015602482015274151bdad95b881d1c985b9cd9995c8819985a5b1959605a1b60448201526064015b60405180910390fd5b81816005015461052b9190611032565b6005909101555050565b6060600060025467ffffffffffffffff81111561055457610554610e57565b6040519080825280602002602001820160405280156105dd57816020015b6105ca60405180610120016040528060006001600160a01b0316815260200160608152602001606081526020016000815260200160008152602001600081526020016060815260200160608152602001606081525090565b8152602001906001900390816105725790505b50905060005b6002548110156108d9576000818152600160208181526040928390208351610120810190945280546001600160a01b0316845291820180549293929183019161062b90610fbe565b80601f016020809104026020016040519081016040528092919081815260200182805461065790610fbe565b80156106a45780601f10610679576101008083540402835291602001916106a4565b820191906000526020600020905b81548152906001019060200180831161068757829003601f168201915b505050505081526020018260020180546106bd90610fbe565b80601f01602080910402602001604051908101604052809291908181526020018280546106e990610fbe565b80156107365780601f1061070b57610100808354040283529160200191610736565b820191906000526020600020905b81548152906001019060200180831161071957829003601f168201915b5050505050815260200182600301548152602001826004015481526020018260050154815260200182600601805461076d90610fbe565b80601f016020809104026020016040519081016040528092919081815260200182805461079990610fbe565b80156107e65780601f106107bb576101008083540402835291602001916107e6565b820191906000526020600020905b8154815290600101906020018083116107c957829003601f168201915b505050505081526020018260070180548060200260200160405190810160405280929190818152602001828054801561084857602002820191906000526020600020905b81546001600160a01b0316815260019091019060200180831161082a575b50505050508152602001826008018054806020026020016040519081016040528092919081815260200182805480156108a057602002820191906000526020600020905b81548152602001906001019080831161088c575b50505050508152508383815181106108ba576108ba61104a565b60200260200101819052505080806108d190611060565b9150506105e3565b50919050565b6002546000908152600160205260408120600481015442116109585760405162461bcd60e51b815260206004820152602c60248201527f54686520646561646c696e652073686f756c642062652061206461746520696e60448201526b103a343290333aba3ab9329760a11b6064820152608401610512565b80546001600160a01b0319166001600160a01b038a16178155875161098690600183019060208b0190610ac7565b50865161099c90600283019060208a0190610ac7565b5060038101869055600481018590556000600582015583516109c79060068301906020870190610ac7565b506000546040516323b872dd60e01b8152336004820152306024820152604481018590526001600160a01b03909116906323b872dd90606401602060405180830381600087803b158015610a1a57600080fd5b505af1158015610a2e573d6000803e3d6000fd5b505050506040513d601f19601f82011682018060405250810190610a529190610ff3565b610a965760405162461bcd60e51b8152602060048201526015602482015274151bdad95b881d1c985b9cd9995c8819985a5b1959605a1b6044820152606401610512565b60028054906000610aa683611060565b91905055506001600254610aba919061107b565b9998505050505050505050565b828054610ad390610fbe565b90600052602060002090601f016020900481019282610af55760008555610b3b565b82601f10610b0e57805160ff1916838001178555610b3b565b82800160010185558215610b3b579182015b82811115610b3b578251825591602001919060010190610b20565b50610b47929150610b4b565b5090565b5b80821115610b475760008155600101610b4c565b600060208284031215610b7257600080fd5b5035919050565b604080825283519082018190526000906020906060840190828701845b82811015610bbb5781516001600160a01b031684529284019290840190600101610b96565b5050508381038285015284518082528583019183019060005b81811015610bf057835183529284019291840191600101610bd4565b5090979650505050505050565b6000815180845260005b81811015610c2357602081850181015186830182015201610c07565b81811115610c35576000602083870101525b50601f01601f19169290920160200192915050565b6001600160a01b038816815260e060208201819052600090610c6e90830189610bfd565b8281036040840152610c808189610bfd565b90508660608401528560808401528460a084015282810360c0840152610ca68185610bfd565b9a9950505050505050505050565b60008060408385031215610cc757600080fd5b50508035926020909101359150565b600081518084526020808501945080840160005b83811015610d0f5781516001600160a01b031687529582019590820190600101610cea565b509495945050505050565b600081518084526020808501945080840160005b83811015610d0f57815187529582019590820190600101610d2e565b60006020808301818452808551808352604092508286019150828160051b87010184880160005b83811015610e4957888303603f19018552815180516001600160a01b0316845261012088820151818a870152610da982870182610bfd565b9150508782015185820389870152610dc18282610bfd565b606084810151908801526080808501519088015260a0808501519088015260c080850151888303828a01529193509150610dfb8382610bfd565b9250505060e08083015186830382880152610e168382610cd6565b925050506101008083015192508582038187015250610e358183610d1a565b968901969450505090860190600101610d71565b509098975050505050505050565b634e487b7160e01b600052604160045260246000fd5b600082601f830112610e7e57600080fd5b813567ffffffffffffffff80821115610e9957610e99610e57565b604051601f8301601f19908116603f01168101908282118183101715610ec157610ec1610e57565b81604052838152866020858801011115610eda57600080fd5b836020870160208301376000602085830101528094505050505092915050565b600080600080600080600060e0888a031215610f1557600080fd5b87356001600160a01b0381168114610f2c57600080fd5b9650602088013567ffffffffffffffff80821115610f4957600080fd5b610f558b838c01610e6d565b975060408a0135915080821115610f6b57600080fd5b610f778b838c01610e6d565b965060608a0135955060808a0135945060a08a0135915080821115610f9b57600080fd5b50610fa88a828b01610e6d565b92505060c0880135905092959891949750929550565b600181811c90821680610fd257607f821691505b602082108114156108d957634e487b7160e01b600052602260045260246000fd5b60006020828403121561100557600080fd5b8151801515811461101557600080fd5b9392505050565b634e487b7160e01b600052601160045260246000fd5b600082198211156110455761104561101c565b500190565b634e487b7160e01b600052603260045260246000fd5b60006000198214156110745761107461101c565b5060010190565b60008282101561108d5761108d61101c565b50039056fea2646970667358221220940a968565b72db9670b832f659076e29ca2e3ef24909a3f81664c0492e3a5cc64736f6c63430008090033",
  "linkReferences": {},
  "deployedLinkReferences": {}
}